0046581300015787843D    01      20260709V2026071701SUSP001841710      000010000PR 00000000000000137R$ 063000000000000N                    ATACADOR 95 CM M16256 CREAM114/MANJERICAO4229 13MM+PO20     93825230000170Arquivo XML enviar e-mail nfe@dakota.com.br                                                                                                                          
0046581300015787844D    01      20260709V2026072301SUSP007770210      002000000MT 00000000000000035R$ 063000000000000N                    FITA REFORCO FR 6MM CRU                                     93825230000170Arquivo XML enviar e-mail nfe@dakota.com.br                                                                                                                          
0046581300015787845D    01      20260709V2026072301SUSP050133643      000150000MT 00000000000000220R$ 063000000000000N                    FITA MFGP 15MM CAPUCCINO5492/REFLETI.CINZA5MM               93825230000170Arquivo XML enviar e-mail nfe@dakota.com.br                                                                                                                          
