0046581300031987365D    01      20260702V2026071303SUSP006456300      000400000PR 00000000000000097R$ 063000000000000N                    ATACADOR 100 CM M22063 7MM GRIS 382+PONT.20MM               19542918000190Arquivo XML enviar e-mail nfe@dakota.com.br                                                                                                                          
0046581300031987365D    02      20260702V2026071303SUSP006459114      000400000PR 00000000000000097R$ 063000000000000N                    ATACADOR 100 CM M22063 7MM PINK 468+PONT.20MM               19542918000190Arquivo XML enviar e-mail nfe@dakota.com.br                                                                                                                          
0046581300031987369D    01      20260702V2026071303SUSP001821012      000200000PR 00000000000000112R$ 063000000000000N                    ATACADOR 120CM M22063 7MM CARBON 359+PONT.20MM              19542918000190Arquivo XML enviar e-mail nfe@dakota.com.br                                                                                                                          
0046581300031987369D    02      20260702V2026071303SUSP001821165      000001000PR 00000000000000112R$ 063000000000000N                    ATACADOR 120CM M22063 7MM CINZA 4220+PONT.20MM              19542918000190Arquivo XML enviar e-mail nfe@dakota.com.br                                                                                                                          
0046581300031987369D    03      20260702V2026071303SUSP027707080      000300000PR 00000000000000137R$ 063000000000000N                    ATACADOR 110 CM M22063 7MM CARBON 359+PONT.20MM             19542918000190Arquivo XML enviar e-mail nfe@dakota.com.br                                                                                                                          
0046581300031987369D    04      20260702V2026071303SUSP027707240      000800000PR 00000000000000137R$ 063000000000000N                    ATACADOR 110 CM M22063 7MM MARINHO 290+PONT.20MM            19542918000190Arquivo XML enviar e-mail nfe@dakota.com.br                                                                                                                          
0046581300031987369D    05      20260702V2026071303SUSP027707268      000500000PR 00000000000000137R$ 063000000000000N                    ATACADOR 110 CM M22063 7MM GELATO 214+PONT.20MM             19542918000190Arquivo XML enviar e-mail nfe@dakota.com.br                                                                                                                          
0046581300031987369D    06      20260702V2026071303SUSP027707277      000100000PR 00000000000000137R$ 063000000000000N                    ATACADOR 110 CM M22063 7MM MARFIM 114+PONT.20MM             19542918000190Arquivo XML enviar e-mail nfe@dakota.com.br                                                                                                                          
0046581300031987369D    07      20260702V2026071303SUSP027707357      000200000PR 00000000000000137R$ 063000000000000N                    ATACADOR 110 CM M22063 7MM GRIS 382+PONT.20MM               19542918000190Arquivo XML enviar e-mail nfe@dakota.com.br                                                                                                                          
0046581300031987369D    08      20260702V2026071303SUSP027709173      000500000PR 00000000000000137R$ 063000000000000N                    ATACADOR 110 CM M22063 7MM PINK 468+PONT.20MM               19542918000190Arquivo XML enviar e-mail nfe@dakota.com.br                                                                                                                          
0046581300031987373D    01      20260702V2026071303SUSP004116876      000600000MT 00000000000000080R$ 063000000000000N                    ELASTICO ELST LS 16410 7MM MARINHO 290                      19542918000190Arquivo XML enviar e-mail nfe@dakota.com.br                                                                                                                          
0046581300031987373D    02      20260702V2026071303SUSP050069157      001200000MT 00000000000000080R$ 063000000000000N                    ELASTICO ELST LS 16410 7MM BLUSH 4243                       19542918000190Arquivo XML enviar e-mail nfe@dakota.com.br                                                                                                                          
0046581300031987373D    03      20260702V2026071303SUSP050144879      000100000MT 00000000000000080R$ 063000000000000N                    ELASTICO ELST LS 16410 7MM CLAY 4144                        19542918000190Arquivo XML enviar e-mail nfe@dakota.com.br                                                                                                                          
0046581300031987376D    01      20260702V2026071303SUSP050046056      004000000MT 00000000000000080R$ 063000000000000N                    ELASTICO LS 16410 7MM PRAIA 812                             19542918000190Arquivo XML enviar e-mail nfe@dakota.com.br                                                                                                                          
0046581300031987376D    02      20260702V2026071303SUSP050145367      000050000MT 00000000000000080R$ 063000000000000N                    ELASTICO LS 16410 7MM MOUSSE 4089                           19542918000190Arquivo XML enviar e-mail nfe@dakota.com.br                                                                                                                          
0046581300031987379D    01      20260702V2026071303SUSP050025128      001000000MT 00000000000000066R$ 063000000000000N                    FITA MFGP 15MM PRETO                                        19542918000190Arquivo XML enviar e-mail nfe@dakota.com.br                                                                                                                          
0046581300031987379D    02      20260702V2026071303SUSP050028049      000250000MT 00000000000000066R$ 063000000000000N                    FITA MFGP 15MM MARINHO 290                                  19542918000190Arquivo XML enviar e-mail nfe@dakota.com.br                                                                                                                          
0046581300031987380D    01      20260702V2026071303SUSP050028932      000010000MT 00000000000000065R$ 063000000000000N                    FITA MFGP 10MM MARINHO 290                                  19542918000190Arquivo XML enviar e-mail nfe@dakota.com.br                                                                                                                          
0046581300031987382D    01      20260702V2026071303SUSP050131523      000200000MT 00000000000000066R$ 063000000000000N                    FITA MFGP 15MM NAVAL 062                                    19542918000190Arquivo XML enviar e-mail nfe@dakota.com.br                                                                                                                          
0046581300031987382D    02      20260702V2026071303SUSP050132299      000100000MT 00000000000000066R$ 063000000000000N                    FITA MFGP 15MM TULE 072                                     19542918000190Arquivo XML enviar e-mail nfe@dakota.com.br                                                                                                                          
0046581300031987382D    03      20260702V2026071303SUSP050132388      000200000MT 00000000000000066R$ 063000000000000N                    FITA MFGP 15MM JASMIM 221                                   19542918000190Arquivo XML enviar e-mail nfe@dakota.com.br                                                                                                                          
0046581300031987382D    04      20260702V2026071303SUSP050132584      000400000MT 00000000000000066R$ 063000000000000N                    FITA MFGP 15MM GRAFITE 09                                   19542918000190Arquivo XML enviar e-mail nfe@dakota.com.br                                                                                                                          
0046581300031987382D    05      20260702V2026071303SUSP050134319      000250000MT 00000000000000066R$ 063000000000000N                    FITA MFGP 15MM SPICY 606                                    19542918000190Arquivo XML enviar e-mail nfe@dakota.com.br                                                                                                                          
